:100000000C9446000C9458000C9458000C94580022
:100010000C9458000C9458000C9458000C94580000
:100020000C9458000C9458000C9458000C945800F0
:100030000C9458000C9458000C9458000C945800E0
:100040000C9458000C9458000C9458000C945800D0
:100050000C9458000C9458000C9458000C945800C0
:100060000C9458000C9458000C9458000C945800B0
:100070000C9458000C9458000C9458000C945800A0
:100080000C9458000C9458000C94580011241FBE76
:10009000CFEFD0E1DEBFCDBF11E0A0E0B1E001C005
:1000A0001D92AC30B107E1F70E94CA000C94E10048
:1000B0000C94000082E080939B00EAE9F0E08081EC
:1000C00088618083EDE9F0E080818F7B808380818F
:1000D0008E60808387E6809399001092980008953F
:1000E00029B330E02095309521703070C901089512
:1000F000CF93C82F89B38E7F8E3F19F085BB809335
:100100000B010E9470008130910509F4C2E08C2F30
:10011000CF91089590910B019F5F90930B019830C0
:1001200018F091E090930B012091070130910801A4
:100130004091090150910A0121369EED390792E064
:10014000490790E05907A0F021E030E000900B0152
:1001500002C0220F331F0A94E2F7209525BB1092AC
:100160000701109208011092090110920A010CC0B7
:100170002F5F3F4F4F4F5F4F209307013093080190
:100180004093090150930A0199B39F3F11F095BB29
:1001900081E008958FEF84BB85BB1ABA85BB8BBB0A
:1001A0000E945A0081E0813029F08130E0F38430F0
:1001B000D0F704C081E00E947800F5CF0E948A0049
:0601C000F2CFF894FFCF1E
:00000001FF
