:100000000C9446000C9458000C9458000C94580022
:100010000C9458000C9458000C9458000C94580000
:100020000C9458000C9458000C9458000C945800F0
:100030000C9458000C9458000C9458000C945800E0
:100040000C9458000C9458000C9458000C945800D0
:100050000C9458000C9458000C9458000C945800C0
:100060000C9458000C9458000C9458000C945800B0
:100070000C9458000C9458000C9458000C945800A0
:100080000C9458000C9458000C94580011241FBE76
:10009000CFEFD0E1DEBFCDBF11E0A0E0B1E001C005
:1000A0001D92AC30B107E1F70E949B000C94BC009C
:1000B0000C94000029B330E0209530952170307009
:1000C000C9010895CF93C82F89B38E7F8E3F19F051
:1000D00085BB809308010E945A008130910509F484
:1000E000C2E08C2FCF910895209108012F5F2093BB
:1000F0000801283018F021E02093080121E030E0C9
:100100000090080102C0220F331F0A94E2F72095E5
:1001100025BB2FEF3FEF4BE0215030404040E1F74F
:1001200000C000C001C099B38099FDCF9F3F11F07E
:1001300095BB81E008951ABA17BA8FEF84BB11BA44
:1001400082B98BBB88BB85BB82BB83B981E084301D
:1001500028F4823050F48130D1F703C08430B9F7ED
:1001600007C081E00E946200F2CF0E947400EFCFCE
:0C01700085B3809589BBFCCFF894FFCFCD
:00000001FF
