:100000000C9446000C9450000C9450000C9450003A
:100010000C9450000C9450000C9450000C94500020
:100020000C9450000C9450000C9450000C94500010
:100030000C9450000C9450000C9450000C94500000
:100040000C9450000C9450000C9450000C945000F0
:100050000C9450000C9450000C9450000C945000E0
:100060000C9450000C9450000C9450000C945000D0
:100070000C9450000C9450000C9450000C945000C0
:100080000C9450000C9450000C94500011241FBE8E
:10009000CFEFD0E1DEBFCDBF0E9452000C947200C2
:1000A0000C9400008FEF84BB85BB40E081E090E0C2
:1000B00055B39C01042E02C0220F331F0A94E2F7AD
:1000C000322F3095352335BBEFEFF7EC3197F1F751
:1000D00000C0000035B3322B35BB4F5F483044F3CE
:0800E00040E0E6CFF894FFCFE9
:00000001FF
